:040000005BEF00F0C2
:100008004682FACF36F0FBCF37F0D9CF38F0DACFC7
:1000180039F0F3CF3AF0F4CF3BF0F6CF3CF0F7CF1E
:100028003DF0F8CF3EF0F5CF3FF0A0A61EEF00F070
:1000380020EF00F035EF00F0A1A625EF00F027EF44
:1000480000F035EF00F002D833EF00F00500FA6E4B
:100058000D50FD6E0E50FE6EFF6AFA50120045EF0D
:1000680000F09DA63AEF00F03CEF00F045EF00F0FD
:100078009EA641EF00F043EF00F045EF00F027EFB8
:1000880000F03FC0F5FF3EC0F8FF3DC0F7FF3CC0A1
:10009800F6FF3BC0F4FF3AC0F3FF39C0DAFF38C0BF
:1000A800D9FF37C0FBFF36C0FAFF46921100F6EFC2
:0200B8000CF04A
:10100000004C1B161B261B3010F410401B6C14CA1E
:101010001BC21BBA1BB21BAA1BA21B9A1B341B9C14
:101020001653746172740D00446174653A200000B7
:1010300081EC0DF00009D8B420EF08F022EF08F0A1
:101040005DEF08F030EF08F0E5EC0DF079EF08F017
:10105000E1EC0DF079EF08F0D9EC0DF079EF08F044
:1010600072C02EF073C02FF002D841EF08F00500D7
:10107000FA6E00016651FD6E6751FE6EFF6AFA500E
:101080001200316E326A3250000AD8B44AEF08F0CA
:101090002CEF08F03150010AD8B42CEF08F0030A05
:1010A000D8B424EF08F0010AD8B428EF08F0070AF2
:1010B000D8B42CEF08F02CEF08F0000183917DC02C
:1010C000D9FF7EC0DAFF7D4B7E2BDF50E9EC0DF0BF
:1010D00000017F07D8A080077F518011D8A473EF4B
:1010E00008F075EF08F078EF08F0060E79EF08F0D9
:1010F000030E120004EC0EF07DC0D9FF7EC0DAFFB3
:10110000DF6E00017D4B7E2B7F07D8A080077F51CB
:101110008011D8B48EEF08F090EF08F095EF08F04A
:10112000F0EC0DF0050ECCEF08F08387A0EF08F08F
:10113000CDEC0DF0CCEF08F0D1EC0DF0CCEF08F0D9
:101140006CC02EF06DC02FF002D8B0EF08F0050093
:10115000FA6E6051FD6E6151FE6EFF6AFA50120028
:10116000316E326A3250000AD8B4B9EF08F09CEF01
:1011700008F03150010AD8B49CEF08F0030AD8B443
:1011800098EF08F0010AD8B498EF08F0070AD8B42D
:101190009CEF08F09CEF08F012000001866F010E32
:1011A0000001876F83B5D7EF08F0D9EF08F01CEF87
:1011B00009F086C07CF08393838583910E0E816F46
:1011C000010E7B6FF40E7A6F8387140E606F1C0E16
:1011D000616F000E6C6F000E6D6F140E626F1C0E4F
:1011E000636F000E6E6F000E6F6F140E646F1C0E37
:1011F000656F000E706F000E716F140E666F1C0E1F
:10120000676F000E726F000E736F100E686F1C0E0A
:10121000696F000E746F000E756FDA0E846F1B0E0F
:10122000856FC0EC0DF0FEEC0DF007EC0DF0F6EC68
:101230000DF0000E0001876F875112000A380F0B66
:10124000300F136E0A500F0B300F146E2D0E156EEB
:101250000B380F0B300F166E0B500F0B300F176E35
:101260002D0E186E0C380F0B300F196E0C500F0B23
:10127000300F1A6E2F0E1B6E09380F0B300F1C6EBD
:1012800009500F0B300F1D6E2D0E1E6E07380F0B01
:10129000300F1F6E07500F0B300F206E2D0E216E7A
:1012A00008380F0B300F226E08500F0B300F236ED3
:1012B0000D0E246E280E0001856F8551D8A4100EE6
:1012C000866F060E876FB4EC0BF0130E0001856F6E
:1012D000866B120E876FB4EC0BF012000001926F58
:1012E000000E0001946F000E936F00019251CDEC3F
:1012F00008F00009D8B47FEF09F081EF09F075EF2D
:1013000009F0200E0001896F190E8A6F930E8B6F02
:101310008C6B3DEC0DF08D0E0001846F856B000E23
:10132000876F010E866FD2EC0CF0000E0001896F02
:10133000000E8A6F000E8B6F000E8C6F49EC0DF063
:10134000C9EC0DF063EC0CF0E806D8B4AAEF09F094
:10135000ACEF09F0A2EF09F094C08FF000019351B7
:10136000906F8F518D6F90C08EF0120061EC0DF078
:10137000F28EF28CF29CF28C210E0001856F855169
:10138000D8A4100E866F060E876FB4EC0BF0100E0B
:101390000001906FDD0E916FA60E6CEC0DF0100E3B
:1013A0000001906FA60E31EC0DF0106E1AEC0BF0F0
:1013B00020EE01F0050EEBCFDBFFE806FCE21EECB1
:1013C00009F09E0E18EC0DF00F6E0B0E0001986FD9
:1013D000260E976F5D0EE82EFED7972FFCD7982F1D
:1013E000FAD700F000F0D6EF09F05BEF00F0000153
:1013F0008E6F000E00018F6F00018E51CDEC08F052
:101400000009D8B406EF0AF008EF0AF0FCEF09F083
:101410004C0E0001896F190E8A6F8F0E8B6F8C6BCB
:101420003DEC0DF08D0E0001846F856B000E876F13
:10143000010E866FD2EC0CF0000E0001896F000ED9
:101440008A6F000E8B6F000E8C6F49EC0DF0C9ECAB
:101450000DF063EC0CF0E806D8B431EF0AF033EF8E
:101460000AF029EF0AF000018F5112000001838772
:1014700047EF0AF0DDEC0DF073EF0AF002EC0EF02E
:10148000030E73EF0AF0D9EC0DF073EF0AF06CC0A5
:101490002EF06DC02FF002D857EF0AF00500FA6E5B
:1014A0006051FD6E6151FE6EFF6AFA501200316E9E
:1014B000326A3250000AD8B460EF0AF043EF0AF003
:1014C0003150010AD8B443EF0AF0030AD8B43AEF16
:1014D0000AF0010AD8B43AEF0AF0070AD8B43EEF8E
:1014E0000AF043EF0AF0120000018F6F00018F51E4
:1014F000CDEC08F00009D8B480EF0AF082EF0AF0D2
:1015000076EF0AF0F40E0001896F180E8A6F8E0EC6
:101510008B6F8C6B3DEC0DF08D0E0001846F856B35
:10152000000E876F010E866FD2EC0CF0000E0001EA
:10153000896F000E8A6F000E8B6F000E8C6F49EC66
:101540000DF0C9EC0DF063EC0CF0E806D8B4ABEF8D
:101550000AF0ADEF0AF0A3EF0AF0120000EC0EF073
:10156000000183A1B6EF0AF0B8EF0AF0C5EF0AF068
:1015700081EC0DF00009D8B4C0EF0AF0C2EF0AF018
:10158000C5EF0AF00F0E0001816F00018151020DBD
:10159000F350010F336E33C0F6FF100EF76EF86A8A
:1015A0000900F5CF34F00900F5CF35F002D8E2EFAD
:1015B0000AF00500FA6E3450FD6E3550FE6EFF6A7B
:1015C000FA5012000001816F12000001886F0001C3
:1015D00084518511D8B4EFEF0AF0F1EF0AF007EF6C
:1015E0000BF08851020DF350600FD96EDA6A84C097
:1015F000DEFF85C0DDFF8851020DF3506C0FD96E00
:10160000DA6A86C0DEFF87C0DDFF19EF0BF0885174
:10161000020DF350600FD96EDA6A140EDE6E1C0EE6
:10162000DD6E8851020DF3506C0FD96EDA6ADE6AF6
:10163000DD6A1200000E00018D6FD00EF7EC09F08C
:10164000086E010E00018D6FD00EF7EC09F0076EE9
:10165000020E00018D6FD00EF7EC09F0096E040E3A
:1016600000018D6FD00EF7EC09F00A6E050E000137
:101670008D6FD00EF7EC09F00B6E060E00018D6F2A
:10168000D00EF7EC09F00C6E20EE07F000EE90F0B3
:10169000050EDBCFEBFFE806FCE2120000018391B0
:1016A000020E826F5CEF0BF0DDEC0DF080EF0BF0C3
:1016B000D9EC0DF080EF0BF070C02EF071C02FF060
:1016C00002D86CEF0BF00500FA6E6451FD6E6551A7
:1016D000FE6EFF6AFA501200316E326A3250000A12
:1016E000D8B475EF0BF058EF0BF03150020AD8B4B4
:1016F00054EF0BF0010AD8B454EF0BF058EF0BF095
:101700001200296E25502610D8B489EF0BF08BEF0C
:101710000BF0A1EF0BF02950020DF350600FD96EC2
:10172000DA6A25C0DEFF26C0DDFF2950020DF35026
:101730006C0FD96EDA6A27C0DEFF28C0DDFFB3EF79
:101740000BF02950020DF350600FD96EDA6A140EB7
:10175000DE6E1C0EDD6E2950020DF3506C0FD96E3B
:10176000DA6ADE6ADD6A1200000E00018B6F000E7D
:101770008A6F000E8B6F000E8A6FD7EF0BF085C05B
:10178000F6FF86C0F7FF000EF86E0F0EF76403D069
:101790000800F55005D0F6CFE9FFF7CFEAFFEF508C
:1017A00025EC0DF00001854B862B8A4B8B2B875146
:1017B000886F896B88518A5D89518B59D8A0E3EF76
:1017C0000BF0E5EF0BF0BFEF0BF01200080EB86E58
:1017D000900EAB6E240EAC6E190EAF6E000EB06E96
:1017E000000E0001846F000E856FB6EC0DF0000E48
:1017F0000001846F000E856FB1EC0DF0000E00014A
:10180000846F000E856FBBEC0DF0000E126E12009F
:101810000001846F010E0001856F83B312EF0CF09D
:1018200014EF0CF027EF0CF08383000E856F8451CA
:10183000D8B41DEF0CF01FEF0CF023EF0CF0010EED
:10184000816F25EF0CF0020E816FF8EC0DF00001B6
:101850008551120020EE02F02E50D9262F50DA22A8
:10186000DF50306E30C025F0266A2EC0D9FF2FC061
:10187000DAFFDECF27F0DDCF28F0E4EC0CF0000E2D
:101880002A6E000E2B6E000E2C6E000E2D6E55EC87
:101890000DF0020E1200000E8D6E000E8C6E000E0A
:1018A000896E000E8A6E000E8B6E070E966E926821
:1018B0009368BF0E946E95687E681F0E7F6E000E53
:1018C0007C6EF18E1200010E0001846F83B36BEF0A
:1018D0000CF06DEF0CF077EF0CF083957C69FEEC6B
:1018E0000DF0FAEC0DF0FCEC0DF082C084F000017C
:1018F000845112002EC025F02FC026F0000E286E55
:10190000010E276EE4EC0CF0000E2A6E000E2B6E1A
:10191000000E2C6E000E2D6E55EC0DF0040E120014
:101920002EC025F02FC026F0000E286E020E276E66
:10193000E4EC0CF0000E2A6E000E2B6E000E2C6EE6
:10194000000E2D6E55EC0DF0020E12002EC025F08B
:101950002FC026F0000E286E010E276EE4EC0CF06E
:10196000000E2A6E000E2B6E000E2C6E000E2D6ED9
:1019700055EC0DF0020E12002EC025F02FC026F0FF
:10198000000E286E020E276EE4EC0CF0000E2A6E9C
:10199000000E2B6E000E2C6E000E2D6E55EC0DF011
:1019A000040E1200000183A7D8EF0CF0DAEF0CF060
:1019B000E3EF0CF084C07DF085C07EF086C07FF040
:1019C00087C080F083971200000183A7EAEF0CF034
:1019D000ECEF0CF0F5EF0CF025C07DF026C07EF0AA
:1019E00027C07FF028C080F08397120000EE60F0DF
:1019F000240EEE6AE806FDE100EE01F0240EEE6A28
:101A0000E806FDE1469046920001B6EF09F0C6BA3D
:101A10000CEF0DF00EEF0DF017EF0DF0000EC76E8E
:101A2000080EC66E000EC56E030EC86EC68A120082
:101A30000001956F000E00018D6F95516EEC09F05D
:101A400000018D51966F965112000001846F9EA87F
:101A50002CEF0DF02EEF0DF027EF0DF084C0ADFF51
:101A600012000001916F90C08DF000019151F7ECD0
:101A700009F00001926F9251120089C084F08AC06F
:101A800085F08BC086F08CC087F0000EE5EC0AF084
:101A9000120089C084F08AC085F08BC086F08CC0AB
:101AA00087F0020EE5EC0AF012002AC025F02BC0E8
:101AB00026F02CC027F02DC028F0000E81EC0BF092
:101AC0001200C5EC0DF077EC0DF04BEC0CF0ACEC2B
:101AD0000DF0E6EC0BF012000001926F90C08DF05B
:101AE00091C08EF00001925174EC0AF01200000EC9
:101AF000C76E080EC66E000EC56E030EC86EC69A7F
:101B00001200C5BC86EF0DF089EF0DF0010E8AEFD3
:101B10000DF0000E1200000183817C510109E9ECF7
:101B20000DF0050E1200000183817C51E9EC0DF0EF
:101B3000030E120000018393000E826F0E0E12003E
:101B40000001839106EC0EF0040E12000001839355
:101B5000000E826F0E0E1200300ED36E000E9B6EC2
:101B6000120084C042F085C043F0120084C044F0EB
:101B700085C045F0120084C040F085C041F01200DD
:101B800084C00DF085C00EF01200D08EA2869F8614
:101B90001200000E08EC0CF01200F3EC0DF0090E30
:101BA0001200F3EC0DF00A0E1200F0EC0DF0050E31
:101BB00012000CEC0EF0000E12000EEC0EF0010EF6
:101BC00012000EEC0EF0020E12000EEC0EF0010EE2
:101BD0001200256E25C0C9FF1200AEEC0AF01200FB
:101BE000C59AC5881200C58AC58812009D86120054
:101BF000C58012009D961200C69A12009E96120091
:101C00009E9612009E861200C9501200C5861200D0
:101C1000050E1200010E1200C5841200C5821200CA
:020000040030CA
:0E000000FF081F1EFF8B85FF0FC00FE00F4093
:00000001FF
