:040000005BEF00F0C2
:100008004C82FACF42F0FBCF43F0D9CF44F0DACF9D
:1000180045F0F3CF46F0F4CF47F0F6CF48F0F7CFEE
:1000280049F0F8CF4AF0F5CF4BF0A0A61EEF00F04C
:1000380020EF00F035EF00F0A1A625EF00F027EF44
:1000480000F035EF00F002D833EF00F00500FA6E4B
:100058002B50FD6E2C50FE6EFF6AFA50120045EFD1
:1000680000F09DA63AEF00F03CEF00F045EF00F0FD
:100078009EA641EF00F043EF00F045EF00F027EFB8
:1000880000F04BC0F5FF4AC0F8FF49C0F7FF48C071
:10009800F6FF47C0F4FF46C0F3FF45C0DAFF44C08F
:1000A800D9FF43C0FBFF42C0FAFF4C921100C2EFD8
:0200B8000CF04A
:1010000000521BF21A001B3010EE10481BE2139C1A
:101010001B941B8C1B841B7C1B741B6C1B3E1B4872
:101020001753746172740D00446174653A200000B6
:101030006FEC0DF00009D8B420EF08F022EF08F0B3
:101040005CEF08F030EF08F0CEEC0DF076EF08F032
:10105000CAEC0DF076EF08F0C2EC0DF076EF08F078
:1010600013C03AF014C03BF002D840EF08F005007E
:10107000FA6E0750FD6E0850FE6EFF6AFA501200BD
:101080003D6E3E6A3E50000AD8B449EF08F02CEF9E
:1010900008F03D50010AD8B42CEF08F0030AD8B488
:1010A00024EF08F0010AD8B428EF08F0070AD8B4F2
:1010B0002CEF08F02CEF08F024901EC0D9FF1FC0C1
:1010C000DAFF1E4A1F2ADF50D2EC0DF02006D8A00E
:1010D000210620502110D8A470EF08F072EF08F01C
:1010E00075EF08F0060E76EF08F0030E1200EDEC37
:1010F0000DF01EC0D9FF1FC0DAFFDF6E1E4A1F2A87
:101100002006D8A0210620502110D8B48AEF08F07C
:101110008CEF08F091EF08F0D9EC0DF0050EC8EF58
:1011200008F024869CEF08F0B6EC0DF0C8EF08F04C
:10113000BAEC0DF0C8EF08F00DC03AF00EC03BF06D
:1011400002D8ACEF08F00500FA6E0150FD6E0250B7
:10115000FE6EFF6AFA5012003D6E3E6A3E50000A73
:10116000D8B4B5EF08F098EF08F03D50010AD8B4B4
:1011700098EF08F0030AD8B494EF08F0010AD8B445
:1011800094EF08F0070AD8B498EF08F098EF08F049
:10119000120000017A6F010E00017B6F24B4D3EFBF
:1011A00008F0D5EF08F018EF09F07AC01DF024928E
:1011B000248424900E0E226E010E1C6EF40E1B6E03
:1011C0002486E60E016E1B0E026E000E0D6E000EE2
:1011D0000E6EE60E036E1B0E046E000E0F6E000EFA
:1011E000106EE60E056E1B0E066E000E116E000EE2
:1011F000126EE60E076E1B0E086E000E136E000ECA
:10120000146EE20E096E1B0E0A6E000E156E000EB5
:10121000166EAC0E786F1B0E796F9AEC0DF0E7EC42
:101220000DF0E4EC0CF0DFEC0DF0000E00017B6F34
:101230007B51120028380F0B300F0001666F2850C9
:101240000F0B300F676F2D0E686F29380F0B300FA3
:10125000696F29500F0B300F6A6F2D0E6B6F2A3894
:101260000F0B300F6C6F2A500F0B300F6D6F2F0E5E
:101270006E6F27380F0B300F6F6F27500F0B300F2B
:10128000706F2D0E716F25380F0B300F726F255058
:101290000F0B300F736F2D0E746F26380F0B300F3E
:1012A000756F26500F0B300F766F0D0E776F280E6F
:1012B000796F7951D8A4100E7A6F060E7B6F72EC9D
:1012C0000BF0660E0001796F7A6B120E7B6F72EC79
:1012D0000BF012000001866F000E0001886F000EF7
:1012E000876F00018651C9EC08F00009D8B47BEF84
:1012F00009F07DEF09F071EF09F0000E00017D6F3C
:10130000190E7E6F870E7F6F806B2BEC0DF0810EB8
:101310000001786F796B000E7B6F010E7A6FD3EC52
:101320000CF0000E00017D6F000E7E6F000E7F6FCF
:10133000000E806F37EC0DF0B2EC0DF053EC0CF0BA
:10134000E806D8B4A6EF09F0A8EF09F09EEF09F07F
:1013500088C083F000018751846F8351816F84C0FE
:1013600082F012000001826F000E0001836F000105
:101370008251C9EC08F00009D8B4C1EF09F0C3EFFD
:1013800009F0B7EF09F02C0E00017D6F190E7E6F8A
:10139000830E7F6F806B2BEC0DF0810E0001786F58
:1013A000796B000E7B6F010E7A6FD3EC0CF0000EA0
:1013B00000017D6F000E7E6F000E7F6F000E806F4C
:1013C00037EC0DF0B2EC0DF053EC0CF0E806D8B4AD
:1013D000ECEF09F0EEEF09F0E4EF09F000018351C2
:1013E0001200248601EF0AF0C6EC0DF02DEF0AF092
:1013F000EBEC0DF0030E2DEF0AF0C2EC0DF02DEF2B
:101400000AF00DC03AF00EC03BF002D811EF0AF01E
:101410000500FA6E0150FD6E0250FE6EFF6AFA5032
:1014200012003D6E3E6A3E50000AD8B41AEF0AF030
:10143000FDEF09F03D50010AD8B4FDEF09F0030AB1
:10144000D8B4F4EF09F0010AD8B4F4EF09F0070AB0
:10145000D8B4F8EF09F0FDEF09F012004FEC0DF0F1
:10146000F28EF28CF29CF28C210E0001796F795190
:10147000D8A4100E7A6F060E7B6F72EC0BF0100E74
:101480000001846FDD0E856FA60E5AEC0DF0100E74
:101490000001846FA60E1FEC0DF02E6ED8EC0AF042
:1014A00020EE60F0050EEBCFDBFFE806FCE21AEC65
:1014B00009F09E0E06EC0DF02D6E000E0001816FFE
:1014C0002DC082F0700E69EC0AF04EEF0AF05BEF6F
:1014D00000F00001836F00018351C9EC08F000099E
:1014E000D8B475EF0AF077EF0AF06BEF0AF0D40E7C
:1014F00000017D6F180E7E6F820E7F6F806B2BEC6C
:101500000DF0810E0001786F796B000E7B6F010E7C
:101510007A6FD3EC0CF0000E00017D6F000E7E6F31
:10152000000E7F6F000E806F37EC0DF0B2EC0DF007
:1015300053EC0CF0E806D8B4A0EF0AF0A2EF0AF0E2
:1015400098EF0AF0120000017C6F000178517911C8
:10155000D8B4ADEF0AF0AFEF0AF0C5EF0AF07C5156
:10156000020DF350010FD96EDA6A78C0DEFF79C040
:10157000DDFF7C51020DF3500D0FD96EDA6A7AC08F
:10158000DEFF7BC0DDFFD7EF0AF07C51020DF35088
:10159000010FD96EDA6AE60EDE6E1B0EDD6E7C512F
:1015A000020DF3500D0FD96EDA6ADE6ADD6A1200A1
:1015B000000E0001816FD00EB2EC09F0266E010E14
:1015C0000001816FD00EB2EC09F0256E020E000111
:1015D000816FD00EB2EC09F0276E040E0001816F0E
:1015E000D00EB2EC09F0286E050E0001816FD00E0E
:1015F000B2EC09F0296E060E0001816FD00EB2EC3C
:1016000009F02A6E20EE25F000EE84F0050EDBCF07
:10161000EBFFE806FCE21200E9EC0DF024A013EF6A
:101620000BF015EF0BF021EF0BF06FEC0DF0000954
:10163000D8B41DEF0BF01FEF0BF021EF0BF00F0EE6
:10164000226E2250020DF350010F3F6E3FC0F6FF95
:10165000100EF76EF86A0900F5CF40F00900F5CFDB
:1016600041F002D83DEF0BF00500FA6E4050FD6EE0
:101670004150FE6EFF6AFA501200226E1200356E63
:1016800031503210D8B447EF0BF049EF0BF05FEF59
:101690000BF03550020DF350010FD96EDA6A31C0EC
:1016A000DEFF32C0DDFF3550020DF3500D0FD96E55
:1016B000DA6A33C0DEFF34C0DDFF71EF0BF0355066
:1016C000020DF350010FD96EDA6AE60EDE6E1B0EC4
:1016D000DD6E3550020DF3500D0FD96EDA6ADE6AF9
:1016E000DD6A1200000E00017F6F000E7E6F000E9B
:1016F0007F6F000E7E6F95EF0BF079C0F6FF7AC01A
:10170000F7FF000EF86E0F0EF76403D00800F550D7
:1017100005D0F6CFE9FFF7CFEAFFEF5013EC0DF05D
:101720000001794B7A2B7E4B7F2B7B517C6F7D6B3D
:101730007C517E5D7D517F59D8A0A1EF0BF0A3EFC6
:101740000BF07DEF0BF012002490020E236EB1EF30
:101750000BF0C6EC0DF0D5EF0BF0C2EC0DF0D5EFB1
:101760000BF011C03AF012C03BF002D8C1EF0BF001
:101770000500FA6E0550FD6E0650FE6EFF6AFA50C7
:1017800012003D6E3E6A3E50000AD8B4CAEF0BF01C
:10179000ADEF0BF03D50020AD8B4A9EF0BF0010AEF
:1017A000D8B4A9EF0BF0ADEF0BF01200080EB86E35
:1017B000900EAB6E240EAC6E190EAF6E000EB06EB6
:1017C000000E0001786F000E796F90EC0DF0000EA6
:1017D0000001786F000E796F8BEC0DF0000E0001A8
:1017E000786F000E796F95EC0DF0000E306E1200E0
:1017F0000001786F010E0001796F24B202EF0CF046
:1018000004EF0CF017EF0CF02482000E796F785182
:10181000D8B40DEF0CF00FEF0CF013EF0CF0010E3D
:10182000226E15EF0CF0020E226EE1EC0DF00001BD
:101830007951120020EE02F03A50D9263B50DA22BC
:10184000DF503C6E3CC031F0326A3AC0D9FF3BC039
:10185000DAFFDECF33F0DDCF34F0F5EC0CF0000E24
:10186000366E000E376E000E386E000E396E43EC89
:101870000DF0020E1200000E8D6E000E8C6E000E2A
:10188000896E000E8A6E000E8B6E070E966E926841
:101890009368BF0E946E95687E681F0E7F6E000E73
:1018A0007C6EF18E1200010E0001786F24B25BEFA6
:1018B0000CF05DEF0CF067EF0CF024941D68E7EC82
:1018C0000DF0E3EC0DF0E5EC0DF023C078F0000135
:1018D000785112003AC031F03BC032F0000E346E45
:1018E000010E336EF5EC0CF0000E366E000E376E06
:1018F000000E386E000E396E43EC0DF0040E12002F
:101900003AC031F03BC032F0000E346E020E336E3E
:10191000F5EC0CF0000E366E000E376E000E386ED1
:10192000000E396E43EC0DF0020E12003AC031F099
:101930003BC032F0000E346E010E336EF5EC0CF04D
:10194000000E366E000E376E000E386E000E396EC9
:1019500043EC0DF0020E12003AC031F03BC032F001
:10196000000E346E020E336EF5EC0CF0000E366E87
:10197000000E376E000E386E000E396E43EC0DF01F
:10198000040E120000EE60F0180EEE6AE806FDE1AB
:1019900000EE01F0300EEE6AE806FDE14C904C924C
:1019A00000012EEF0AF024A6D8EF0CF0DAEF0CF0CD
:1019B000E3EF0CF078C01EF079C01FF07AC020F081
:1019C0007BC021F024961200C6BAE9EF0CF0EBEFD1
:1019D0000CF0F4EF0CF0000EC76E080EC66E000E91
:1019E000C56E030EC86EC68A120024A6FAEF0CF06C
:1019F000FCEF0CF005EF0DF031C01EF032C01FF00F
:101A000033C020F034C021F0249612000001896F09
:101A1000000E0001816F89516AEC09F000018151CB
:101A20008A6F8A5112000001786F9EA81AEF0DF09C
:101A30001CEF0DF015EF0DF078C0ADFF12000001A6
:101A4000856F84C081F000018551B2EC09F000017E
:101A5000866F865112007DC078F07EC079F07FC01D
:101A60007AF080C07BF0000EA3EC0AF012007DC07B
:101A700078F07EC079F07FC07AF080C07BF0020EF3
:101A8000A3EC0AF0120036C031F037C032F038C093
:101A900033F039C034F0000E3FEC0BF01200AEEC26
:101AA0000DF065EC0DF03BEC0CF086EC0DF0D6EC97
:101AB0000BF012000001866F84C081F085C082F0B7
:101AC0000001865169EC0AF01200000EC76E080E84
:101AD000C66E000EC56E030EC86EC69A1200C5BC57
:101AE00074EF0DF077EF0DF0010E78EF0DF0000EB2
:101AF000120024801D500109D2EC0DF0050E1200D9
:101B000024801D50D2EC0DF0030E1200300ED36E67
:101B1000000E9B6E120078C08DF079C08EF012001E
:101B200078C08FF079C090F0120078C08BF079C047
:101B30008CF0120078C02BF079C02CF012002492A7
:101B4000000E236E0E0E12002490EFEC0DF0040E2A
:101B500012002492000E236E0E0E1200D08EA2866A
:101B60009F861200000EF8EC0BF01200DCEC0DF07A
:101B7000090E1200DCEC0DF00A0E1200D9EC0DF08B
:101B8000050E1200F5EC0DF0000E1200F7EC0DF052
:101B9000010E1200F7EC0DF0020E1200F7EC0DF042
:101BA000010E1200316E31C0C9FF12000CEC0BF0B7
:101BB0001200C59AC5881200C58AC58812009D8684
:101BC0001200C58012009D961200C69A12009E96C1
:101BD00012009E9612009E861200C9501200C58601
:101BE0001200050E1200010E1200C5841200C582FB
:021BF0001200E1
:020000040030CA
:0E000000FF081F1EFF8B85FF0FC00FE00F4093
:00000001FF
